:020000040800F2
:10000000980C002099020008F1370008352D0008EF
:10001000ED370008E5070008B540000800000000C3
:10002000000000000000000000000000F937000898
:10003000E907000800000000F5370008FD37000858
:10004000B3020008B3020008B3020008B3020008BC
:10005000B3020008B3020008B3020008B3020008AC
:10006000B3020008B3020008C1080008B302000888
:10007000B3020008B3020008B3020008B30200088C
:10008000B3020008B3020008B3020008B30200087C
:10009000B3020008B3020008B3020008E108000838
:1000A000B3020008B3020008B3020008B30200085C
:1000B000B3020008B3020008B3020008B30200084C
:1000C000B3020008B3020008B3020008B30200083C
:1000D000B3020008B3020008B3020008B30200082C
:1000E000ED070008B3020008B3020008B3020008DD
:1000F000B3020008B3020008B3020008B30200080C
:10010000B3020008B3020008B3020008B3020008FB
:10011000B3020008B3020008B3020008B3020008EB
:10012000B3020008B3020008B3020008B3020008DB
:10013000B30200080000000000000000B302000845
:10014000B3020008B3020008B3020008B3020008BB
:10015000B3020008B3020008B3020008B3020008AB
:10016000B3020008B3020008B3020008B30200089B
:10017000B3020008B3020008B30200080000000048
:1001800000000000B30200080000000000000000B2
:10019000B30200080000000000000000B3020008E5
:1001A000000000000000000000000000B302000892
:1001B000B3020008B3020008B3020008B30200084B
:1001C000B302000800F002F800F057F814A696E811
:1001D000000CB244B344DA4501D100F04EF8BAE85D
:1001E0000F000FA696E83000A5EB040504EB060708
:1001F000AAEB0704A7F101074FEA15154FEA3414DB
:10020000A4F10104AC4201D300F037F813F0010F60
:1002100018BFFB1A43F0010300F001F8DBE71847B1
:10022000844B0000A44B0000103A24BF78C878C16A
:10023000FAD8520724BF30C830C144BF04680C60EC
:1002400070470000704700000023002400250026AE
:10025000103A28BF78C1FBD8520728BF30C148BF29
:100260000B607047642900F0EB80002070471FB5D9
:1002700004F049FD1FBD10B510BD00F078FA11461D
:10028000FFF7F5FF03F0DEFF00F096FA03B4FFF787
:10029000F2FF03BC00F09EFA094880470948004776
:1002A000FEE7FEE7FEE7FEE7FEE7FEE7FEE7FEE726
:1002B000FEE7FEE704480549054A064B7047000083
:1002C000B5380008C501000898060020980C0020E9
:1002D000980800209808002053EA020C00F069807A
:1002E0002DE9F04B4FF00006002B1FBFB3FA83F54A
:1002F00003FA05F424FA05F65E4012BF1643B2FA7B
:1003000082F502FA05F4C5F120051EBF22FA05FCAC
:1003100044EA0C04203556EA044C4FEA144418BF52
:10032000641C4FF000084FF00009904271EB030C81
:1003300039D3002919BFB1FA81F701FA07F6B0FAEB
:1003400080F700FA07F6C7F120071EBF20FA07FC66
:1003500046EA0C062037B6FBF4FCA7EB0507103F76
:1003600007F01F0BCBF120062CFA06F60CFA0BFB5C
:1003700044BFB3460026202FA4BF5E464FF0000BBB
:100380005BEA060C08BF4FF0010B19EB0B0948EBB9
:100390000608ABFB027C06FB02CC0BFB03CCC01BAC
:1003A00071EB0C01C1E70B46024641464846BDE8E9
:1003B000F08B13B5084318BF4FF0FF300146AFF381
:1003C0000080BDE81C4070470FB41CB5074B06AA5F
:1003D0007B4469460090059800F0B1F90020694619
:1003E00000F0C0F91CBC5DF814FB00009103000094
:1003F00070B5044685690068C10601D5302600E065
:100400002026C00707D070BDD4E9012130469047AF
:10041000206A401C20626D1EF6D570BD70B5044682
:1004200085690078C00707D170BDD4E9012120207B
:100430009047206A401C20626D1EF6D570BD0000FA
:100440002DE9F0410646002410687529314616A5AD
:1004500010D0AFF30080002802DA404213A507E075
:1004600031688A0701D512A502E0490704D511A514
:10047000012401E0AFF3008000210A2206F12407E5
:1004800009E0B0FBF2FCB0FBF2F302FB1C003030E1
:1004900078541846491C0028F3D123462A46304692
:1004A000BDE8F04100F0EDB8000000002D000000B4
:1004B0002B000000200000002DE9F05F8946044673
:1004C0004FF0000ADFF824B1FB44C0F820A020461A
:1004D000E168884700287DD0252806D0D4E901218D
:1004E0009047206A401C2062F1E700255F462046C5
:1004F000E16888472028064607DB312E05D2B81967
:1005000010F8200C08B10543F1E7A80701D525F044
:100510000405C4F81CA00027C4F818A02A2E09D08E
:10052000304604F0E9FB38B304EB8708303EC8F8E6
:10053000186019E059F8041B204604EB870291610A
:10054000E1688847012F064618D1E069002820DAC3
:1005500025F020051DE0D8F8180000EB800006EB20
:1005600040003038C8F818002046E1688847064641
:1005700004F0C2FB0028EED1012F0AD02E2E08D1A4
:100580002046E16888477F1C0646022F45F020057B
:10059000C4DBA069002803DA404245F00105A061F0
:1005A000E80701D025F01005A6B1A6F141001928F1
:1005B00002D8203645F400654A463146204625607B
:1005C0004D46FFF74FFE60B1012807D0ED1D25F025
:1005D000070000E007E000F1080978E705F10409E9
:1005E00075E730467AE7206ABDE8F09F544800007E
:1005F00010B5431C02E010F8011B71B18107FAD15C
:100600004FF0013202C88C1A8C4314EAC211F9D09F
:10061000C01A0A0603D0C01E10BDC01A10BD0A04BD
:1006200001D0801E10BD0902FCD0401E10BD4FF04D
:10063000000200B5134694469646203922BFA0E832
:100640000C50A0E80C50B1F12001BFF4F7AF09073E
:1006500028BFA0E80C5048BF0CC05DF804EB89002F
:1006600028BF40F8042B08BF704748BF20F8022B72
:1006700011F0804F18BF00F8012B7047704770478A
:1006800070472DE9F0470D4699469246044600F121
:1006900024080168880604D5E06921F01001216072
:1006A00000E00120A84201DD471B00E00027A1690E
:1006B0007A1902EB0900081AA0612078C00602D45A
:1006C0002046FFF795FE002608E0D4E901211AF83C
:1006D00006009047206A401C761C20624E45F4DBE1
:1006E0002078C0060AD52046FFF782FE06E0D4E94E
:1006F000012130209047206A401C2062381EA7F15B
:100700000107F4DC07E0D4E9012118F8050090475F
:10071000206A401C2062281EA5F10105F3DC20465A
:10072000FFF77CFE2078000602D50220BDE8F087A6
:100730000120FBE701694A1C02610878704700B597
:100740008FB0CDE901310021059105497944CDE90A
:10075000031011466846FFF7AFFE0FB000BD000062
:10076000E5FFFFFF0A6802F8010B0A607047754653
:1007700000F02CF8AE4605006946534620F007000D
:10078000854618B020B5FFF795FDBDE820404FF035
:1007900000064FF000074FF000084FF0000BAC468A
:1007A000ACE8C009ACE8C009ACE8C009ACE8C009D5
:1007B00021F007018D46704710B50446AFF3008065
:1007C0002046BDE81040FFF761BD000000487047BB
:1007D0003000002001491820ABBEFEE726000200D1
:1007E00070470000FEE700007047000043F6144029
:1007F000C4F20100006880045DD52DE9F04140F2AB
:100800000400C2F200000021017040F29500C2F223
:100810000000017040F29600C2F20000017040F248
:100820000500C2F200004FF0010880F8008040F29D
:100830000600C2F20000017040F29700C2F2000010
:10084000017040F20700C2F20000017040F208009F
:10085000C2F20000017040F20900C2F20000017013
:1008600040F20A0040F2000540F2010640F20207A1
:10087000C2F2000040F20304C2F20005C2F2000618
:10088000C2F200070170C2F20004002000222970A9
:1008900031703970217004F0F1F9287831783A78A4
:1008A000237804F0A5F940F29800C2F2000080F825
:1008B0000080BDE8F0414FF4005000F051B8000056
:1008C00043F61440C4F201000068C00605D540F2AA
:1008D0000C00C2F2000000210170102000F040B8AE
:1008E00043F61440C4F201000168890608D4016887
:1008F000490607D4006800060AD5032003E000BFBC
:10090000012000E0022040F20C01C2F20001087058
:1009100080B5202000F024F8402000F021F880204D
:10092000BDE8804000F01CB8EFF3108072B600BF45
:10093000FEE70000B0B5044600F002F9054640F2BB
:100940002000C2F200000078611C18BF044400BF00
:1009500000F0F6F8401BA042FAD3B0BD704700008B
:1009600043F61441C4F201010A68024214BF086050
:100970007047FFF7F3BF00002DE9F04F82B000F1A0
:100980003E4707F1FF77860546EA972741F60006BE
:10099000C4F20206072243F6004EB04208BF062208
:1009A000C4F2010E062F38BF3A46002600274FF04A
:1009B0000008009209E000BF08F101080237B8F111
:1009C000100F06F1040600F0A3800D68012202FA60
:1009D00008F415EA0409EFD0D1F804B003220BF0B3
:1009E000030CACF10105BA40012D6FEA020A0FD8E1
:1009F0008268CD6802EA0A02BD402A4382604268EA
:100A0000A243CBF3001404FA08F42243426005E049
:100A1000BCF1030F02D14FF0030C1EE0C2688C68DA
:100A200002EA0A02BC402243BCF1020FC26014D1A8
:100A30006FF0030202EA58020244D2F820C006F026
:100A40001C040F230D69A3402CEA0303A5402B438C
:100A50001362D1F804B00BF0030C02680CFA07F330
:100A600002EA0A021A431BF4403F0260A4D00022AB
:100A700043F644030192C4F202031A684FF6084C8D
:100A800042F480421A601A68CFF6FF7C02F480427A
:100A90000192019A28F00302724452F80C3006F0D9
:100AA0000C050F24AC40A343009C04FA05F52B432E
:100AB00042F80C30DEF808204B6842EA090543F69C
:100AC0000C4CDC0258BF22EA0905CEF80850C4F2EB
:100AD000010CDCF800209C0242EA090558BF22EA1A
:100AE0000905CCF80050DEF804209C0342EA090511
:100AF00058BF22EA0905CEF80450DEF80020DB03D7
:100B000042EA090558BF22EA0905CEF8005053E72A
:100B100002B0BDE8F08F00000069084018BF012056
:100B200070470000426902EA0103914341EA034130
:100B300081617047002A08BF090481617047000085
:100B400040F29460C2F2000000687047002804BFC1
:100B500001207047F0B581B0044690F83D0028B9F7
:100B6000002084F83C00204600F060FD242084F83A
:100B70003D002068016821F001010160016841F435
:100B800000410160016821F40041016001F04EFA6A
:100B9000636848F2A16CC0F2010C40F60011C0F28B
:100BA0003D0163453CBF48F28041C0F21E018842CE
:100BB00002D2012001B0F0BD4DF68361C4F21B31B9
:100BC000A0FB01122168970CD1F804E04FF496764F
:100BD0002EF03F0545EA92454D60774348F63816BA
:100BE0000D6AC0F24106A7FB067625F03F07634574
:100BF00038BF960C721C3A430A62CA6948F2A06672
:100C00004CF6FF77C0F20106B34222EA07020BD886
:100C100001385B00B0FBF3F001306FF31F300428A4
:100C200098BF04201BE000BFA768013857B11927FF
:100C30007B43B0FBF3F001306FF31F3070B100F570
:100C4000804007E003EB4303B0FBF3F001306FF3A8
:100C50001F3018B100F5004001E000BF0120104333
:100C6000C8610868D4E9072320F0C0001043184386
:100C70000860886848F2FF3204F10C0790438CCF7B
:100C800018431043A6698860C86820F0FF00384305
:100C90003043C860086840F001000860002020214F
:100CA000206484F83D10206384F83E0001B0F0BD5C
:100CB0002DE9F04381B01F46164688460446FFF7EB
:100CC0003FFF94F83D10202920D105462068816916
:100CD000890717D5FFF734FF401B1928F6D90020E4
:100CE0002021206384F83D1084F83E00216C022608
:100CF00041F02001216484F83C00304601B0BDE899
:100D0000F08300BF94F83C10012905D1022630463B
:100D100001B0BDE8F08300BF012184F83C100168F8
:100D2000C90703D1016841F001010160016821F4A4
:100D300000610160212184F83D10102184F83E10EB
:100D40000021216466626785618D21850021CFF6CF
:100D5000FF71E162E16A11F5803F18BF012919D1E5
:100D6000016841F4807101604169DDF82090C90794
:100D700023D119F1010116D0B9F1000F48D000BFFD
:100D8000FFF7DEFE401B484544D820684169C9078B
:100D9000F6D012E00829E3D0216B1229E0D0E3E776
:100DA0004169C90709D14169C90706D14169C90724
:100DB00004BF41695FEAC171F2D02169B1F5804F8A
:100DC00002D1FE215DE000BF062101EAD811F03119
:100DD00001614169090753D4416919F101024FEAE0
:100DE000415131D0002900F18380B9F1000F00F0AA
:100DF0003981FFF7A5FE401B484500F23581206888
:100E0000416909073CD441694905F2D570E000BF4A
:100E1000FFF796FE00202021206384F83D1084F81F
:100E20003E00216C012641F020012164216884F8F4
:100E30003C000868C00544BF4FF400702064304691
:100E400001B0BDE8F08300BF002951D44169090712
:100E500016D4416949054BD44169090710D4416949
:100E6000490545D4416909070AD4416949053FD478
:100E70004169090704D441694905E7D538E000BF55
:100E8000FF2101EA08010161416989073AD44169FA
:100E900019F101022AD049052AD4B9F1000F00F056
:100EA000E180FFF74DFE401B484500F2DD802068E1
:100EB0004169890726D441694905F2D518E000BF88
:100EC000416989071ED44169490511D441698907DF
:100ED00018D4416949050BD44169890712D4416985
:100EE000490505D4416989070CD441694905E7D50D
:100EF000016841F4007101606FF480614161042078
:100F0000B3E000BF0026009641690091816900911D
:100F10000099218D002900F0958009F10108014612
:100F200051F8142F120635D4B8F1000F16D0B9F1CC
:100F3000000F00F0AB8000BF0868400500F1AE80F4
:100F4000FFF7FEFD401B484500F2A58020680146E2
:100F500051F8142F1206EFD51CE000BF0A685205A5
:100F600000F19C800A68120614D40A68520500F148
:100F700095800A6812060DD40A68520500F18E8029
:100F80000A68120606D40A68520500F187800A68CA
:100F90001206E3D5636A194611F8012B02616162FA
:100FA000618D01396185278D0146A7F1010CA4F8F7
:100FB00028C051F8142F52070DD55FEA0C420AD011
:100FC0005A78A7F1020C02619A1C6262628D013AA2
:100FD0006285A4F828C00A6852072FD4B8F1000F20
:100FE00014D0B9F1000F51D00868400556D4FFF76E
:100FF000A7FD401B48454ED82068014651F8142FE4
:101000005207F1D5B4F828C018E000BF0A685205AD
:1010100044D40A68520711D40A6852053ED40A68BB
:1010200052070BD40A68520538D40A68520705D40F
:101030000A68520532D40A685207E7D55FEA0C41C4
:101040007FF46DAF016841F400710160202084F8E5
:101050003D0084F83E6084F83C60304601B0BDE855
:10106000F08300BFFFF76CFD2020002120222163C8
:1010700084F83D2084F83E10226C01261043206441
:1010800084F83C10304601B0BDE8F08308684005A4
:1010900004D4FFF755FD202004E000BF6FF480600A
:1010A0000860042000212022216384F83D2084F878
:1010B0003E10226C1043206484F83C10206C0428FD
:1010C0000AD120680126016841F4007101603046B0
:1010D00001B0BDE8F08300BF0126304601B0BDE895
:1010E000F08300002DE9F04784B0984617460E467D
:1010F0000446FFF725FD94F83D10202923D105462D
:1011000020688169890719D5FFF71AFD401B192846
:10111000F6D900202021206384F83D1084F83E0099
:10112000206C04F13C0940F02000206402200021E2
:1011300089F8001004B0BDE8F08700BFA14619F897
:101140003C1F012904D1022004B0BDE8F08700BF94
:10115000012289F800200368DDE90D1A0C9ADB07EB
:1011600003D1036843F001030360036823F40063C1
:101170000360222084F83D00402084F83E000020D7
:10118000206462626185608D314620850020CFF643
:10119000FF70E06220463A464346CDE900A501F0E3
:1011A000CBFD18B1012004B0BDE8F087208DA8B1B7
:1011B00002282BD0012835D121680A6822F48062E8
:1011C0000A60002203924A6903928A690392039A91
:1011D0000A6842F400720A602CE000BF002003900D
:1011E000206841690391816903910399016841F481
:1011F00000710160202084F83D00002084F83E004A
:10120000002189F8001004B0BDE8F08721680A6861
:1012100022F480620A600A6842F400620A600022D6
:10122000039202E00021039121684A6903928969CF
:10123000039103990AF1010680B2032818D8022805
:1012400042D0012856D1BAF1000F00F0AB802068DF
:10125000014651F8142F520600F1A8800868C00614
:1012600000F1E280FFF76CFC401B5045EFD9D0E065
:10127000BAF1000F10D000BF2068014651F8142FBA
:1012800052060ED40868C00600F1CE80FFF758FC65
:10129000401B5045F0D9BCE020684169490640F147
:1012A000B1800069616A0870606A2268411C208D03
:1012B000616201382085638D013B638553695B075B
:1012C00040F18080106973E020684169490747D484
:1012D000002E59D0BAF1000F00F09980FFF730FCD2
:1012E000401B504500F29580206841694907F5D5BB
:1012F00036E000BF2068416949070FD4002E65D051
:10130000BAF1000F00F08380FFF71AFC401B504534
:1013100000F27F80206841694907F5D5016821F412
:10132000806101600069616A0870606A218D013026
:101330000139606221852068618D013961854169CB
:1013400049070DD4002E4FD0BAF1000F5FD0FFF740
:10135000F7FB401B50455CD8206841694907F6D52A
:10136000016841F4007101600069616A0870606A97
:101370002268411C6162218D01392185618D01390D
:1013800061851169417014E041694907E8D44169F8
:1013900049075CBF41695FEA4171E1D4416949078E
:1013A000F2D5DDE72068416949062BD50069616AFD
:1013B0000870606A218D01306062481E2085618D51
:1013C0000139618501047FF437AF13E741694907AB
:1013D000A4D4416949075CBF41695FEA41719DD46A
:1013E00041694907F2D599E741694907B8D441698C
:1013F00049075CBF41695FEA4171B1D4416949075E
:10140000F2D5ADE750F8141FC90601460CD4FFF71A
:1014100097FB00202021206384F83D1084F83E00D3
:10142000206C40F020000AE06FF0100008600020FF
:101430002021206384F83D1084F83E00206C206455
:101440000120002189F8001004B0BDE8F0870000F9
:101450002DE9F04383B0994616460F460446FFF740
:101460006FFB94F83D1020291ED105462068816944
:10147000890715D5FFF764FB401B1928F6D9002012
:101480002021206384F83D1084F83E00216C41F057
:101490002001216484F83C00022003B0BDE8F08301
:1014A00094F83C10012903D1022003B0BDE8F08379
:1014B000012284F83C200368DDE90B180A9ADB0757
:1014C00003D1036843F001030360036823F400635E
:1014D0000360212084F83D00402084F83E00002075
:1014E000206462626185608D394620850020CFF6D8
:1014F000FF70E062204632464B46CDE9008501F0A0
:10150000A9FD18B1012003B0BDE8F083208D0028AB
:1015100050D0206808F10106014651F8142F120638
:101520002CD49EB1B8F1000F5AD000BF0868400516
:101530005ED4FFF705FB401B404556D820680146A6
:1015400051F8142F1206F1D518E000BF0A685205B1
:101550004ED40A68120611D40A68520548D40A68A3
:1015600012060BD40A68520542D40A68120605D442
:101570000A6852053CD40A681206E7D5626A114629
:1015800011F8013B0361238D6162591E2185678D2E
:10159000013F678547697F070AD50F0408D0517856
:1015A0000161911C6162991E2185628D013A6285FB
:1015B0000904B1D1204641462A4601F085FE38BBD8
:1015C0002068016841F400710160202084F83D002A
:1015D000002084F83E0084F83C0003B0BDE8F083AE
:1015E0000868400504D4FFF7ABFA202004E000BFF0
:1015F0006FF480600860042000212022216384F8B9
:101600003D2084F83E10226C1043206484F83C1086
:10161000206C04287FF476AF2068016841F40071E3
:101620000160012003B0BDE8F0830000B0B586B0D2
:10163000006845F60001C4F2000100248842CDE9AB
:101640000444CDE9024401942ED045F20041C4F295
:101650000001884251D143F630050094C4F20205DE
:10166000286801A940F002002860286800F0020004
:10167000009000984FF4407001901220CDE90204D0
:10168000032004900420059040F20040C4F20200C0
:10169000FFF772F90094286940F400102861286966
:1016A00000F4001027E000BF43F630050094C4F2B8
:1016B00002052868122140F020002860286800F008
:1016C00020000090009803200190049004200590D1
:1016D00040F20040C4F20200CDE9021400F580504F
:1016E00001A9FFF749F90094286940F480002861B6
:1016F000286900F480000090009806B0B0BD00009A
:1017000040F2200040F29461C2F20000C2F20001F7
:1017100000780A68104408607047000080B543F6FE
:101720000040C4F20200016841F4007101600168E8
:1017300041F480610160016841F48071016003201F
:1017400000F086F8002000F005F800F027F80020EF
:1017500080BD000070B540F22006C2F2000640F2E3
:1017600028013278C2F200014FF47A730968B3FBA2
:10177000F2F20446B1FBF2F1084600F0C1FE0F2C74
:101780004FF0010508D838B94FF0FF30214600224C
:10179000002500F031F87460284670BD82B000204A
:1017A00043F640010190C4F202014A6842F48042CB
:1017B0004A604A6802F480420192019A00900868E7
:1017C00040F080500860086800F080500090009859
:1017D00002B07047002848BF704700F01F01012287
:1017E00002FA01F11C2202EAD0004EF20012CEF2FF
:1017F000000281507047000010B54EF60C5CCEF22E
:10180000000CDCF80030C3F3022E8EF00704042C29
:1018100028BF0424BEF103034FF0FF3E0EFA04F488
:1018200038BF0023A14399400EFA03F39A431143B2
:1018300000F00F0200F160430901043A03F564432C
:101840006244002848BF02F10C03197010BD00006B
:101850004EF60C51CEF200010A684FF6FF031A4013
:1018600060F30A2242F0806040F0FD70086070472B
:1018700001220168C0F80025002280F8F42488695C
:1018800040F000608861486D40F0805040F00302F5
:1018900000204A6570470000002804BF01207047FF
:1018A0002DE9F04F8BB00446056890F8BD0428B9C7
:1018B000002084F8BC04204600F094F8032084F84B
:1018C000BD04E86BC0055CBF00202061206802F009
:1018D000B7FB206804F11C0A0A90D4E90C5004F10B
:1018E000040E9AE8C0079EE80E58CDE9085003A8F8
:1018F00080E8C0030A988DE80058CDF81CA002F0DB
:101900005BF8002853D120680021002502F0A0FBDD
:10191000616869B301200023002200BF03EBC30309
:1019200004EB830787F83C20D3B20132A7F8443098
:10193000D3B2994287F83D0087F84050C7E9125565
:101940007D65EBD800200023002200BF03EBC3031A
:1019500004EB830787F87C220132D3B2994287F8DF
:101960007D0287F88002C7E9A200C7F89402EDD88B
:10197000A06822680A90D4E90C5004F1140E04F116
:10198000240AD4E903379EE840589AE80007CDE9D5
:10199000085002A880E8005810460A9ACDE900765F
:1019A000CDE90589CDF81CA002F006F930B102207E
:1019B00084F8BD0401200BB0BDE8F08F002084F84E
:1019C0003800012084F8BD04606A012802D1204655
:1019D000FFF74EFF206802F0DFF800200BB0BDE8F3
:1019E000F08F0000F0B59DB0044601A804305821E6
:1019F000FEF71DFE2068B0F1A04F01D01DB0F0BD74
:101A00004FF48070019001A800F03EF8002818BF44
:101A1000FEF78AFF002743F630061897C4F2020645
:101A20003068002440F0010030603068C4F20204E5
:101A300000F00100189018984FF4E8501890022018
:101A4000CDE9190703201B900A2018AD1C902046F1
:101A50002946FEF791FF4FF40070CDE918072046A4
:101A600029461A97FEF788FF706840F08000706082
:101A70000097706940F480407061706900F48040A4
:101A8000009000981DB0F0BD2DE9F04381B00446F0
:101A9000006843F68C06C107C4F2020604D14FF079
:101AA000000981070CD415E03168A26B21F0C061F8
:101AB00011433160B2FA82F14FEA5119810709D519
:101AC0003168E26B21F0C05111433160002A08BF38
:101AD0004FF00109410705D44FF00008010712D467
:101AE00020E000BF3168226B21F4401111433160C6
:101AF000B2FA82F14FEA5118B2F5801F08BF4FF0D9
:101B0000010901070ED53168626B21F440011143D0
:101B1000B2F5800F316008BF4FF00109002A08BFFD
:101B20004FF0010881065AD50020009056F84C0C61
:101B300047F2000740F0805046F84C0C56F84C0C29
:101B4000C4F2000700F0805000900098386840F41C
:101B500080703860FEF7F4FF054600BF3868C005A6
:101B600006D4FEF7EDFF401B0228F7D990E100BF35
:101B700056F81C0C10F4407017D0216C01F4407121
:101B8000884212D056F81C0C40F64061C4F247213E
:101B9000012220F440700A6000220A6046F81C0C02
:101BA00056F81C0CC00740F07B812068216C56F869
:101BB000842C4FF6FF4701F4407322F4F812C0F66C
:101BC000FF770F40B3F5407F08BF3A4346F8842CB7
:101BD00056F81C2C6FF31F31114346F81C1CC1062C
:101BE00010D4010619D441061FD4C10525D481059E
:101BF00030D4410536D4B9F1000F3FD1B0F5006FB4
:101C000063D13BE094F8580040F64061C4F24721AC
:101C1000C1F8A00320680106E5D5B168E26C21F4A3
:101C200040011143B1604106DFD5B168A26C21F0DB
:101C300080611143B160C105D9D5B168626D21F0F1
:101C400000611143B160B2F1006F08BF4FF00108AD
:101C50008105CED5B168626C21F080511143B1602D
:101C60004105C8D5B268216D22F000520A43B0F593
:101C7000006FB26018BFB1F1005F23D140F2680974
:101C8000C4F247290020C9F80000FEF759FF0546B5
:101C900056F88C0C000105D5FEF752FF401B0228B8
:101CA000F6D9F5E02068C10702D0A16B00296FD0FA
:101CB000810702D5E16B00296AD0410700F17D80E0
:101CC0007FE000BFB9F1000FD8D1B8F1000F4FF09D
:101CD000000000F0DE806827C4F24727B860FEF7F6
:101CE0002FFF054656F88C0C800005D5FEF728FF1F
:101CF000401B0228F6D9CBE02068410701D5216BB3
:101D000019B101071AD5616BC1B956F8041CD4E9A1
:101D1000062301F44031656A114341EA831141EA27
:101D20000561D4F82CC046F8041C31686FF0FF023E
:101D300021F4F85102EB0C2211433160C00516D595
:101D4000606DB0F1006F12D156F8040C226AD4E92C
:101D5000061300F07060D2034FF6FF75AA430843E4
:101D6000A2F5803240EA8310104346F8040C0120AB
:101D7000B860FEF7E5FE044656F88C0C800000F1D2
:101D80008B80FEF7DDFE001B0328F5D380E000BF4B
:101D900056F8081C56F8082CD4E9013501F44031F6
:101DA00002F0706219436769114341EA851141EA03
:101DB000077146F8081C410703D5216BB1F5801F58
:101DC00005D001071FD5616BB1F5800F1BD156F807
:101DD000081C56F8082CD4E9013701F4403102F010
:101DE000E04219432569114341EA871141EA05613F
:101DF000D4F828C046F8081C3168ACF1010221F083
:101E00001F011143316041051FD5216DB1F1005F04
:101E10001BD1271D56F808CC56F8082CA8CFFF0375
:101E20004FF6FF7127EA01014FF0C06702F0E04270
:101E300007EA4C2707F100771A433A43A1F58031AE
:101E400042EA8512114346F8081C000510D5271DEB
:101E50008FCF40EA8110D1034FF6FF729143A1F575
:101E6000803140EA0360084340EA077046F8080CF6
:101E70000120C9F80000FEF763FE054656F88C0CF9
:101E800000013FF522AFFEF75BFE401B0228F5D9AB
:101E9000032001B0BDE8F083002001B0BDE8F0836D
:101EA000FEF74EFE054641F2883700BF56F81C0C7F
:101EB00080073FF57AAEFEF743FE401BB8424FF075
:101EC0000300F3D9E5E70000002804BF01207047B4
:101ED0002DE9F04143F60808C4F202080446D8F898
:101EE000F8030D4600F00F00884207D288F8F85337
:101EF000D8F8F80300F00F00A84277D120688107D6
:101F000017D5410705D5D8F8001041F4E051C8F8BD
:101F10000010010705D5D8F8001041F46041C8F859
:101F20000010D8F80010A26821F0F0011143C8F8A1
:101F30000010C00740D1D8F8F80300F00F00A84205
:101F400007D988F8F853D8F8F80300F00F00A84232
:101F50004CD12068410707D5D8F80010E26821F479
:101F6000E0511143C8F80010000708D5D8F8000068
:101F7000216920F4604040EAC100C8F8000000F088
:101F80007DF8D8F8001044F63152C1F30311C0F6C1
:101F90000002515C40F2280220FA01F140F22400D4
:101FA000C2F200000068C2F200021160FFF7D2FB2B
:101FB0000020BDE8F08100BF6068811E022907D2C1
:101FC00058F8081C89015CBF0120BDE8F08111E0D0
:101FD000012807D158F8081C89035CBF0120BDE81F
:101FE000F08107E058F8081C890703D40120BDE8F8
:101FF000F08100BFD8F8001021F003010843C8F8B1
:102000000000FEF79DFD064641F28837D8F8000033
:10201000616800F00C00B0EB810F8CD0FEF790FDF2
:10202000801BB842F2D90320BDE8F08140F22800BD
:1020300043F60801C2F20000C4F202010068096818
:1020400044F64152C1F38221C0F60002515CC840FF
:102050007047000040F2280043F60801C2F2000079
:10206000C4F202010068096844F64152C1F34231EA
:10207000C0F60002515CC8407047000010B543F63E
:102080000404C4F202046068C0F3810142F200401B
:10209000C0F2F400DFE801F04202081841F200202B
:1020A000C0F27A0010BD00BF216801F03F02216834
:1020B00023684902C3F3881116D4A1FB0001002351
:1020C000FEF70AF917E000BF216801F03F0221681E
:1020D00023684902C3F3881114D4A1FB0001002333
:1020E000FEF7FAF815E000BF41F20020C0F27A00D6
:1020F0004843B0FBF2F021680222C1F3014102EB38
:10210000410109E041F20020C0F27A004843B0FBEF
:10211000F2F02168C1F30271B0FBF1F010BD0000D4
:10212000002804BF012070472DE9F04182B0044629
:10213000007843F60006C007C4F202060CD0B0686F
:1021400000F00C00042840F089803068800303D53B
:102150006068002800F050812078800723D5B0689F
:1021600010F00C0F11D0B06800F00C00082802D15C
:102170007068400209D5B06800F00C000C2840F0EF
:102180009F807068400200F19B803068800703D513
:10219000E068012840F030813068216920F0F800C3
:1021A00040EAC10030602078000713D4207840074F
:1021B0002AD4A569002D00F01A81B06800F00C0047
:1021C000082840F0AB80012D40F0E880012002B0EB
:1021D000BDE8F0816069002840F20000C4F24720A9
:1021E00000F088800121C0F8801EFEF7A9FC05469A
:1021F000706F8007DAD4FEF7A3FC401B0228F7D9E2
:10220000032002B0BDE8F081306C5FEAC0080AD458
:1022100000200190306C40F080503064306C00F051
:1022200080500190019847F20007C4F20007386817
:10223000C00537D4386840F480703860FEF780FC01
:10224000054600BF3868C0052CD4FEF779FC401B5A
:102250000228F7D9032002B0BDE8F081B06800F091
:102260000C00082803D1706840023FF56EAFB068DB
:1022700000F00C000C2803D1706840023FF565AFF8
:102280006068B0F5803F07D0B0F5A02F40F0CC805B
:10229000306840F480203060306840F48030306036
:1022A000CCE000BFA068012805D0052858D1306FC8
:1022B00040F004003067306F40F0010030675AE0B2
:1022C000E068002800F09C800020C4F24720012133
:1022D0000160FEF735FC0546306880073FF55CAFCE
:1022E000FEF72EFC401B02284FF00300F4D902B089
:1022F000BDE8F0810021C0F8801EFEF721FC0546F4
:10230000706F80077FF552AFFEF71AFC401B022862
:10231000F6D9032002B0BDE8F08100BF0027C4F267
:10232000472700203866FEF70BFC022D05460BD12F
:102330003068800140F19480FEF702FC401B0228C7
:102340004FF00300F4D9D2E7306880014FD5FEF793
:10235000F7FB401B02284FF00300F5D9C7E700BF89
:10236000316F002821F001013167316F21F0040144
:10237000316700F09980FEF7E3FB054641F28837AC
:10238000306F800700F1A280FEF7DAFB401BB842F5
:10239000F6D9032002B0BDE8F08100BF7068E169A2
:1023A00000F480028A4227D1216A00F03F028A426B
:1023B00022D147F6C071626A0140B1EB821F1BD186
:1023C000A16A4FF6FF73C903994300F44032A1F5A7
:1023D00080318A4210D1E16A00F07062B2EB016F85
:1023E0000AD1216B00F0E040B0EB017F04D1002066
:1023F00002B0BDE8F08100BF012002B0BDE8F0816D
:102400000020C4F2472000210160FEF799FB054639
:10241000306880077FF5C7AEFEF792FB401B0228AD
:102420004FF00300F4D962E73168002821F48031CD
:102430003160316821F48021316051D0FEF780FB9A
:10244000054600BF306880033FF586AEFEF778FB97
:10245000401B6428F6D9032002B0BDE8F08100BF1C
:1024600004F11C052FCD246B084340EA8210D903E8
:102470004FF6FF729143A1F5803140EA05600843B1
:1024800040EA0470706001203866FEF759FB04468C
:1024900030688001ABD4FEF753FB001B02284FF0DD
:1024A0000300F5D923E700BFFEF74AFB054641F2DA
:1024B000883700BF306F800708D5FEF741FB401B0F
:1024C000B8424FF00300F5D911E700BFB8F1000F93
:1024D0003FF56FAE306C20F08050306469E600BF8D
:1024E000FEF72EFB054600BF306880037FF534AE53
:1024F000FEF726FB401B64284FF00300F4D9F6E6F4
:10250000411E0020B0EB116F1CBF012070474EF23E
:102510001002CEF2000251604EF62351CEF20001BD
:10252000F0230B700721906011607047002804BFF2
:102530000120704710B5044690F83D0028B90020EE
:1025400084F83C00204600F021F8242084F83D0067
:102550002068C16821F40051C160204601F0B4F93F
:102560002068016921F490410161416921F02A014B
:102570004161C16841F40051C16000202021206404
:1025800084F83D1084F83E1010BD0000016844F648
:102590000000C4F20000814218BF704780B586B0C9
:1025A000002143F630020191C4F20202136900F5E2
:1025B000E23043F480231361136903F48023019311
:1025C000019B0191136843F008031360126802F045
:1025D00008020192019A4FF4407201920222CDE961
:1025E0000221032104910721059101A9FEF7C4F9F5
:1025F00006B0BDE8804070472DE9F04381B0044645
:1026000090F83D0020280DD10F4600294FF0010021
:1026100000F0DD801646002A00F0D98094F83C00D6
:10262000012803D1022001B0BDE8F083012084F825
:102630003C000020206421201D4684F83D00FEF768
:102640007FFAA684E684A1680646B1F5805F03D1CF
:102650002069002800F01081B8460027002084F887
:102660003C00E18C2068002900F0908005F1010910
:102670000DE000BFB8F1000F28D018F8011B416031
:10268000E18C0139E184E18C002900F07F80016850
:102690000906EFD4B9F1000F0AD0FDB1FEF750FAE8
:1026A000801BA8421AD8206801680906F6D5E1E720
:1026B00001680906DED4016809065CBF01685FEAAB
:1026C0000161D7D401680906F2D5D3E737F8021BB8
:1026D0004FF000086FF35F21D1E700BF206850E89A
:1026E000030F216820F4D07041E80302BAB32068D8
:1026F00050E8030F216820F4D07041E8030272B360
:10270000206850E8030F216820F4D07041E80302EC
:102710002AB3206850E8030F216820F4D07041E804
:102720000302002ADAD11AE0206850E8050F216878
:1027300020F0010041E80502DAB1206850E8050FF9
:10274000216820F0010041E8050292B1206850E8BC
:10275000050F216820F0010041E805024AB1206818
:1027600050E8050F216820F0010041E80502002A29
:10277000DAD1202084F83D0084F83E00002084F85F
:102780003C00032001B0BDE8F08300BF01684906AA
:1027900019D4FDB1691C0DD10168490613D4016833
:1027A00049065CBF01685FEA41610CD401684906D3
:1027B000F2D508E0FEF7C4F9801BA8420AD82068C9
:1027C00000684006F6D5202084F83D00002001B0C6
:1027D000BDE8F083206850E8030F216820F4D07032
:1027E00041E80302E2B3206850E8030F216820F4B7
:1027F000D07041E803029AB3206850E8030F2168C3
:1028000020F4D07041E8030252B3206850E8030F6F
:10281000216820F4D07041E80302002ADAD11FE0D9
:10282000206850E8050F216820F0010041E805020A
:10283000002A9ED0206850E8050F216820F0010092
:1028400041E80502002A3FF494AF206850E8050FE4
:10285000216820F0010041E80502002A3FF489AF19
:10286000206850E8050F216820F0010041E80502CA
:10287000002AD5D17DE700BF4FF00008EEE600004A
:1028800010B582B041F204040020CEF2000401F041
:1028900013FC102001F010FC40F22800C2F20000EE
:1028A00000684DF68361C4F21B31A0FB0101890C65
:1028B0004FF4FA62206851432268121A0192019A79
:1028C0008A4211D22268121A0192019A8A420BD2CC
:1028D0002268121A0192019A8A4205D22268121ABB
:1028E0000192019A8A42E7D302B010BDB0B50C46FE
:1028F000302101EAC0014031C501084601F0DCFB8E
:10290000E8B201F0D9FB2078050140F0010000F0A9
:10291000F10001F0D1FB681CC0B201F0CDFB607882
:10292000050140F0010000F0F10001F0C5FB681C5A
:10293000C0B201F0C1FBA078050140F0010000F039
:10294000F10001F0B9FB681CC0B201F0B5FBE07802
:10295000050140F0010000F0F10001F0ADFB681C42
:10296000C0B201F0A9FB2079050140F0010000F0A0
:10297000F10001F0A1FB681CC0B201F09DFB607981
:10298000050140F0010000F0F10001F095FB681C2A
:10299000C0B201F091FBA079050140F0010000F008
:1029A000F10001F089FB681CC0B201F085FBE07901
:1029B000040140F0010000F0F10001F07DFB601C1B
:1029C000C0B2BDE8B04001F077BB00002DE9F04196
:1029D00082B040F29004C2F20004082120706170BD
:1029E000042101284EF6FC5088BF0821A170CEF2C8
:1029F0000000016841F2040521F080710160016866
:102A0000CEF2000541F08071016055F8040C20F011
:102A1000010045F8040C55F8040C40F0010045F89D
:102A2000040C00202860322000BF00BF00BFFDF76B
:102A300081FF60780A278DF8040040F2F000C2F2AE
:102A4000000001AA4E2101230097FEF731F94FF44F
:102A50007A70FDF76FFF302001F02EFB40F228085E
:102A6000C2F20008D8F800004DF68367C4F21B37A5
:102A7000A0FB0701890C41F294122868514300BF62
:102A80002A68121A0192019A8A4211D22A68121AED
:102A90000192019A8A420BD22A68121A0192019A73
:102AA0008A4205D22A68121A0192019A8A42E7D311
:102AB000302001F001FBD8F8000041F29412A0FB95
:102AC0000701890C286851432A68121A0192019A59
:102AD0008A4211D22A68121A0192019A8A420BD2B2
:102AE0002A68121A0192019A8A4205D22A68121A99
:102AF0000192019A8A42E7D3302001F0DDFAD8F83A
:102B0000000041F29412A0FB0701890C2868514390
:102B10002A68121A0192019A8A4211D22A68121A5C
:102B20000192019A8A420BD22A68121A0192019AE2
:102B30008A4205D22A68121A0192019A8A42E7D380
:102B4000202001F0B9FAD8F800006422A0FB0701A8
:102B5000890C2868514300BF2A68121A0192019A11
:102B60008A4211D22A68121A0192019A8A420BD221
:102B70002A68121A0192019A8A4205D22A68121A08
:102B80000192019A8A42E7D3A07840F02001060121
:102B900001F0F00001F090FAF0B201F08DFA04209B
:102BA000E070002001F088FAC02001F085FA0020D2
:102BB00001F082FA102001F07FFAD8F800004FF4FB
:102BC000FA62A0FB0701890C286851432A68121A8F
:102BD0000192019A8A4211D22A68121A0192019A2C
:102BE0008A420BD22A68121A0192019A8A4205D2AD
:102BF0002A68121A0192019A8A42E7D302202071B0
:102C0000002001F059FA602001F056FAD8F80000CF
:102C100041F29412A0FB0701890C2868514300BFC0
:102C20002A68121A0192019A8A4211D22A68121A4B
:102C30000192019A8A420BD22A68121A0192019AD1
:102C40008A4205D22A68121A0192019A8A42E7D36F
:102C500040F20D04C2F2000400202146FFF746FEB8
:102C600004F108010120FFF741FE002001F024FAE1
:102C7000202001F021FAD8F800004FF4FA62A0FBFE
:102C80000701890C286851432A68121A0192019A97
:102C90008A4211D22A68121A0192019A8A420BD2F0
:102CA0002A68121A0192019A8A4205D22A68121AD7
:102CB0000192019A8A42E7D302B0BDE8F081000098
:102CC0000178002908BF7047B0B5441E41F00100EB
:102CD00000F0F1000D0101F0EFF9681CC0B201F045
:102CE000EBF9A17801340029F0D1BDE8B04070477C
:102CF00010B540F29002C2F2000212788A4298BFE8
:102D0000511EC9B207A212F82110084440F08001F8
:102D1000040101F0F00001F0CFF9E0B2BDE810408D
:102D200001F0CAB9000000004000000014000000DB
:102D300054000000FEE700002DE9F04383B0044694
:102D400000680B9D0A9E0768994647F480670760F4
:102D50000768904647F48073036043690F46DA07BB
:102D60001DD1711C11D0002E00F03681FDF7E8FE58
:102D7000401BB04200F2328120684169C907F5D09A
:102D80000DE000BF4169C90709D14169C90706D1F2
:102D90004169C90704BF41695FEAC171F2D007F018
:102DA000FE0707614169890738D44169721C29D03F
:102DB000490529D4002E00F0398100BFFDF7C0FE7F
:102DC000401BB04200F2348120684169890725D454
:102DD00041694905F2D517E0416989071ED4416967
:102DE000490511D44169890718D4416949050BD4B3
:102DF0004169890712D44169490505D441698907A8
:102E00000CD441694905E7D5016841F400710160BE
:102E10006FF48061416104200BE100BF0021029149
:102E2000014651F8142F02924A680292029A0A68E7
:102E3000120620D4002E00F0AB80721C51D10A681B
:102E4000520500F1AD800A68120614D40A685205D2
:102E500000F1A6800A6812060DD40A68520500F136
:102E60009F800A68120606D40A68520500F198800D
:102E70000A681206E3D5B9F1010F45D04FEA1821CF
:102E80000161014651F8142F12063DD4002E00F0C6
:102E90007F80721C2AD10A68520500F181800A687D
:102EA000120631D40A6852057AD40A6812062BD465
:102EB0000A68520574D40A68120625D40A685205B5
:102EC0006ED40A681206E6D51EE000BFFDF738FE94
:102ED000401BB04261D82068014651F8142F1206F9
:102EE000C9D408684005F1D55AE000BF086840051C
:102EF00056D4FDF725FE401BB0424ED8206801464F
:102F000051F8142F1206F1D55FFA88F101610146DC
:102F100051F8142F12061AD4D6B3721C33D10A6892
:102F200052053DD40A68120611D40A68520537D4F6
:102F30000A6812060BD40A68520531D40A681206D0
:102F400005D40A6852052BD40A681206E7D5016831
:102F5000002241F48071016020464FF00111334698
:102F6000009500F005FA002850D02068006844E081
:102F7000FDF7E6FD401BB0420FD82068014651F82E
:102F8000142F1206E3D408684005F1D508E000BF0D
:102F90000868400504D4FDF7D3FD202004E000BFFD
:102FA0006FF480600860042000212022216384F8EF
:102FB0003D2084F83E10226C1043206484F83C10BD
:102FC000206C042841D12068016841F4007101603F
:102FD000012003B0BDE8F083FDF7B2FD0020202101
:102FE000206384F83D1084F83E00216C41F02001FC
:102FF0002164216884F83C000868C00544BF4FF490
:1030000000702064032003B0BDE8F08347F0010C9A
:1030100027680221C0F20101204632462B46C7F83C
:1030200010C003B0BDE8F04300F046BAFDF788FDDC
:10303000202000212022216384F83D2084F83E10C6
:10304000226C1043206484F83C10012003B0BDE8DA
:10305000F08300002DE9F04381B0044600689046FB
:103060000268099D42F4807202604269089E994696
:10307000D2070F461DD1711C11D0002E00F0D28056
:10308000FDF75EFD401BB04200F2CE802068416932
:10309000C907F5D00DE000BF4169C90709D14169F1
:1030A000C90706D14169C90704BF41695FEAC17117
:1030B000F2D007F0FE0101614169890738D4416906
:1030C000721C29D0490529D4002E00F0E98000BFE8
:1030D000FDF736FD401BB04200F2E48020684169F4
:1030E000890725D441694905F2D517E04169890767
:1030F0001ED44169490511D44169890718D4416931
:1031000049050BD44169890712D44169490505D4A1
:10311000416989070CD441694905E7D5016841F443
:10312000007101606FF4806141610420BBE000BF69
:1031300000210091014651F8142F00924A68009234
:10314000009A0A6812061ED4002E00F08580721CB8
:103150004DD10A68520500F187800A68120612D420
:103160000A68520500F180800A6812060BD40A68CA
:10317000520579D40A68120605D40A68520573D438
:103180000A681206E5D5B9F1010F43D04FEA1821BC
:103190000161014651F8142F12063BD4002E5BD07A
:1031A000721C29D10A6852055ED40A68120631D40D
:1031B0000A68520558D40A6812062BD40A685205C8
:1031C00052D40A68120625D40A6852054CD40A68FB
:1031D0001206E7D51EE000BFFDF7B2FC401BB0426F
:1031E0003FD82068014651F8142F1206CBD4086846
:1031F0004005F1D538E000BF0868400534D4FDF73C
:103200009FFC401BB0422CD82068014651F8142F77
:103210001206F1D55FFA88F10161002001B0BDE826
:10322000F08300BFFDF78CFC00202021206384F890
:103230003D1084F83E00216C41F02001216421689A
:1032400084F83C000868C00544BF4FF40070206457
:10325000032001B0BDE8F0830868400504D4FDF701
:103260006FFC202004E000BF6FF480600860042041
:1032700000212022216384F83D2084F83E10226C36
:103280001043206484F83C10206C042817D1206877
:10329000016841F400710160012001B0BDE8F083D4
:1032A000FDF74EFC202000212022216384F83D20E0
:1032B00084F83E10226C1043206484F83C100120F6
:1032C00001B0BDE8F083000070B50368044653F810
:1032D000140F400737D40E46F1B1701C24D100BF43
:1032E0001868400532D4186840072CD41868400587
:1032F0002CD41868400726D41868400526D41868CE
:10330000400720D41868400520D4186840074FF0C3
:10331000000048BF70BDE3E71868400516D4FDF70C
:103320000FFC202016E000BF154600BF18684005BE
:103330000CD4FDF705FC401BB042F2D8236853F8CB
:10334000140F4007F2D5002070BD00BF6FF48060FD
:103350001860042000212022216384F83D2084F895
:103360003E10226C10432064012084F83C1070BD94
:103370002DE9F04105461446DDF8188001F47F0080
:103380002A681E46B0F5803F8FB23FD15069384061
:10339000C01BB0FA80F04009A04277D1701C2BD03E
:1033A000002E77D0FDF7CCFBA0EB0800B04273D81D
:1033B000286840693840C01BB0FA80F04009A0423C
:1033C000F0D063E050693840C01BB0FA80F040098B
:1033D000A0425BD150693840C01BB0FA80F0400970
:1033E000A04253D150693840C01BB0FA80F0400968
:1033F000A0424FF000005DD150693840C01BB0FAC8
:1034000080F04009A042DDD040E000BF9069384024
:10341000C01BB0FA80F04009A04237D1701C1DD00B
:10342000C6B300BFFDF78CFBA0EB0800B04233D859
:10343000286880693840C01BB0FA80F04009A0427B
:10344000F0D023E090693840C01BB0FA80F040090A
:10345000A0424FF0000018BFBDE8F08190693840ED
:10346000C01BB0FA80F04009A0420FD190693840EB
:10347000C01BB0FA80F04009A04207D190693840E3
:10348000C01BB0FA80F04009A042DBD00020BDE8AC
:10349000F08100BFFDF754FB00202021286385F850
:1034A0003D1085F83E00296C41F02001296485F823
:1034B0003C000120BDE8F081F0B581B00446006811
:1034C0001D4643698FB203EA0701B94202D10020C9
:1034D00001B0F0BD4169164601321AD049050ED43B
:1034E000A6B300BFFDF72CFB401BB04230D82068CC
:1034F00041693940B942EAD041694905F2D50168CC
:1035000041F4007101606FF480614161042020E0AA
:1035100041694905F3D441693940B942D7D041697D
:103520004905ECD441693940B942D0D041694905D7
:10353000E5D441693940B942C9D041694905DED471
:1035400041693940B942E3D1C1E700BFFDF7F8FA5C
:10355000202000212022216384F83D2084F83E10A1
:10356000226C1043206484F83C10012001B0F0BDAF
:103570002DE9F04F87B0002443F63000CDE9054433
:103580000194C4F20200016840F6000841F0040111
:1035900001600168C4F2020801F00401019101997F
:1035A00001940168A8F5806741F08001016001681D
:1035B000002201F08001019101990194016844F217
:1035C000810A41F002010160016801F002010191EC
:1035D00001990194016841F008010160016801F05E
:1035E0000801019101990194016841F040010160D5
:1035F000016801F04001019101990194016841F0D5
:1036000001010160006844F2810100F001000190B5
:1036100001983846FDF78EFA08F580552846402176
:1036200000224FF0400BFDF785FA40464FF47061E1
:103630000022FDF77FFA4FF4005002AE02904FF4E3
:10364000881940463146CDE90394FDF795F9CDF848
:1036500008A04FF0010A38463146CDE903A405948D
:10366000FDF78AF928463146CDE902BACDE904448E
:10367000FDF782F98020CDE9020428463146049402
:10368000FDF77AF94FF47060CDE9020A4046314601
:10369000CDE90444FDF770F9F020CDE902090220DC
:1036A000049008F580603146FDF766F90A20002194
:1036B0000022FEF7A1F80A20FEF78CF8172000215F
:1036C0000022FEF799F81720FEF784F82820002141
:1036D0000022FEF791F82820FEF77CF807B0BDE83D
:1036E000F08F000080B540F29C0045F20041C2F22C
:1036F0000000C4F2000148F2A06200234FF4804CA5
:10370000C0F2010280E80E00C0E9033CC0E90533C5
:10371000C0E90733FDF71AFA002808BF80BDEFF3B0
:10372000108072B6FEE7000080B540F2F00045F66A
:103730000001C2F20000C4F2000148F2A0620023BE
:103740004FF4804CC0F2010280E80E00C0E9033C57
:10375000C0E90533C0E90733FDF7F8F9002808BFD1
:1037600080BDEFF3108072B6FEE7000080B540F236
:10377000506044F60001C2F20000C4F200010023D0
:103780004FF00C0C4FF4164280E80E00C0E90333F2
:10379000C0E905C3C361FEF7C9FE002808BF80BDAC
:1037A000EFF3108072B600BFFEE7000080B540F274
:1037B0004410C2F200004FF0A0410622C0E90012FE
:1037C000022100220123C0E90312C0E90613C0E967
:1037D0000822C0E90B32FEF75FF8002808BF80BD61
:1037E000EFF3108072B600BFFEE70000FEE70000B6
:1037F000FEE700007047000070470000FDF780BF43
:10380000B0B594B0002443F64000CDE90B44CDE9B7
:1038100009440694CDE90444CDE902440194C4F27C
:1038200002000168022541F080510160006800F04B
:1038300080500190019847F200000194C4F200000A
:10384000016841F440410160006800F4404001908B
:103850000198012007904FF4A02008904FF48000B9
:103860000E9004200F90A820CDE910050720CDE987
:10387000120507A80D95FEF753FC28B1EFF3108051
:1038800072B600BFFEE700BF0F20CDE902054FF47E
:10389000A05005904FF48050069002A80521049492
:1038A000FEF712FB20B1EFF3108072B6FEE700BF07
:1038B00014B0B0BD4EF68850CEF20000016841F45D
:1038C000700101607047000010B504460068D4E93B
:1038D00002C22369016921F4405111430161626907
:1038E00043EA0C01E3691143C268194349F20C63CE
:1038F0009A431143C1604169A26921F4407141F2C8
:103900000043114340F48062C4F201039A424161D2
:1039100002D1FEF79FFB01E0FEF788FBE1696368D7
:103920001922B1F5004FA0FB020123D15A00DB0F91
:10393000FCF7D2FC48F21F51C5F2EB11A0FB0123AA
:103940005A094FF69C73C0F6FF7303F1805302FBD4
:103950000300322303EBC000A0FB01014FF4F87019
:1039600000EA111000EB0210C1F342110844216873
:10397000886010BD9A009B0FFCF7AEFC48F21F5107
:10398000C5F2EB11A0FB01235A094FF69C73C0F658
:10399000FF7302FB0300322303EB0010A0FB0101C5
:1039A000F02000EA511000EB0210C1F3431108446B
:1039B0002168886010BD000082B00499DDF808C05D
:1039C000012940F64051C0F203016FD1826B4FF6DE
:1039D000BF7322F480328263C268CFF6BD731A408F
:1039E000C260C2680B9B22F44012012BC26003D15B
:1039F000C26842F48012C26000220092009A013232
:103A00000092009A8A4200F2A9800269002A1ED41C
:103A1000009A01320092009A8A4200F29F80026965
:103A2000002A14D4009A01320092009A8A4200F2CD
:103A300095800269002A0AD4009A01320092009A05
:103A40008A4200F28B800269B2F1FF3FD6DC00228D
:103A50000092026942F001020261009A0132009272
:103A6000009A8A427AD80269D2071AD0009A0132A3
:103A70000092009A8A4271D80269D20711D0009A46
:103A800001320092009A8A4268D80269D20708D0AF
:103A9000009A01320092009A8A425FD80269D207E6
:103AA000DBD10021BCF1010F72D169E0C268089B33
:103AB00042F04002C26000220192019A013201925A
:103AC000019A8A4250D80269002A1BD4019A013215
:103AD0000192019A8A4247D80269002A12D4019AB7
:103AE00001320192019A8A423ED80269002A09D421
:103AF000019A01320192019A8A4235D80269B2F1E3
:103B0000FF3FDADC00220192026942F00102026109
:103B1000019A01320192019A8A4225D80269D2079C
:103B20001AD0019A01320192019A8A421CD8026984
:103B3000D20711D0019A01320192019A8A4213D818
:103B40000269D20708D0019A01320192019A8A4291
:103B50000AD80269D207DBD1002106E00321BCF1BB
:103B6000010F15D10CE000BF0321826B002B14BFA5
:103B700022F4803242F480328263BCF1010F07D11B
:103B8000826842F006028260826842F0200282600F
:103B9000084602B0704700000146D0F8000E20F041
:103BA0000300C1F8000ED1F8040840F00202002022
:103BB000C1F80428704700002DE9F04F83B0DDF80C
:103BC0004C800E9F0022B8F1000FC0F80421C0F80D
:103BD0000821C0F80C21C0F81021C0F81421C0F849
:103BE0001821C0F81C21C0F82021C0F82421C0F8F9
:103BF0002821C0F82C21C0F83021C0F83421C0F8A9
:103C00003821C0F83C2107D0826B00F5006B42F4EC
:103C10000012826314E000BFD0F8042800F5006BA6
:103C200042F00202C0F80428826B22F40012826380
:103C3000026842F040020260066846F080060660B4
:103C40000026C0F8006ED0F80068012FC0F80068A8
:103C500006D1DBF80070002B18BF47F0010703E026
:103C6000DBF8003043F00307DDF83CE0DDF830908E
:103C700040F64055C0F203050023C0F800780193D8
:103C8000019B01330193019BAB4249D80369002B8F
:103C90001BD4019B01330193019BAB4240D80369C4
:103CA000002B12D4019B01330193019BAB4237D807
:103CB0000369002B09D4019B01330193019BAB42A3
:103CC0002ED80369B3F1FF3FDADC002301934FF4F0
:103CD00084630361019B01330193019BAB421FD8B5
:103CE00003699B061AD5019B01330193019BAB42EB
:103CF00016D803699B0611D5019B01330193019BE3
:103D0000AB420DD803699B0608D5019B0133019393
:103D1000019BAB4204D803699B06DBD4002400E07E
:103D2000012400230293029B01330293029BAB42C6
:103D300048D80369002B1BD4029B01330293029BDA
:103D4000AB423FD80369002B12D4029B013302938C
:103D5000029BAB4236D80369002B09D4029B013386
:103D60000293029BAB422DD80369B3F1FF3FDADC2B
:103D70000023029310230361029B01330293029BF1
:103D8000AB421FD80369DB061DD5029B01330293AA
:103D9000029BAB4216D80369DB0614D5029B0133A4
:103DA0000293029BAB420DD80369DB060BD5029B45
:103DB00001330293029BAB4204D80369DB06DBD4D8
:103DC00001E000BF01244FF0000A0029CBF810A049
:103DD000CBF814A0CBF81CA000F00481D0F8003977
:103DE0004FF0006707EA13134FF67F324E1EC0F8FC
:103DF0000039C0F810A9C0F808297BD08B1E032B0E
:103E000006F003097246009404D22024B9F1000F91
:103E10003FD165E026F0030400234FF0904E4FF6AB
:103E20007F384FF0000C00BF00EB0C05D5F820796F
:103E3000043C0EEAE777C5F82079C5F83039C5F8B3
:103E40002889D5F840790CF1800C0EEAE777C5F89F
:103E50004079C5F85039C5F84889D5F860790EEA37
:103E6000E777C5F86079C5F87039C5F86889D5F87D
:103E700080790EEAE777C5F88079C5F89039C5F8FA
:103E80008889D1D1DDF84C800CF12004B9F1000F04
:103E900026D000F510673D594FF0904C0CEAE575BF
:103EA0003B193D5100244FF67F3EB9F1010F1C61D3
:103EB000C3F808E014D01D6AB9F1020F0CEAE577E7
:103EC0001F621C63C3F828E00AD01F6C4FF09045B6
:103ED00005EAE7771F6400271F654FF67F379F6469
:103EE000DDF83090009C002996464FF67F324FF067
:103EF000006777D0D0F8003B002E07EA1313C0F814
:103F0000003B4FF00003C0F8103BC0F8082B69D00D
:103F10000239032906F0030C04D22023BCF1000F60
:103F20003BD15FE0009426F003044FF090474FF63A
:103F30007F3600214518D5F8202B043C07EAE272B1
:103F4000C5F8202BC5F8303BC5F8286BD5F8402BB9
:103F500001F1800107EAE272C5F8402BC5F8503B39
:103F6000C5F8486BD5F8602B07EAE272C5F8602BFC
:103F7000C5F8703BC5F8686BD5F8802B07EAE2728C
:103F8000C5F8802BC5F8903BC5F8886BD2D1009C52
:103F900001F12003BCF1000F24D000F53062D658A7
:103FA0004FF0904707EAE676D118D65000264FF634
:103FB0007F33BCF1010F0E618B6013D00A6ABCF134
:103FC000020F07EAE2720A620E638B620AD00A6C81
:103FD0004FF0904303EAE2720A6400220A654FF64A
:103FE0007F328A64DBF81010B9F1000F21F4807180
:103FF000CBF810106FF08041C0F818A0416103D1D8
:10400000816941F010018161816943F60002C8F2C3
:104010003C021143BEF1000F816103D0816941F080
:1040200008018161B8F1010F05D1816941F080413A
:1040300041F004018161204603B0BDE8F08F00002B
:104040000146806820F0010200208A60704700006D
:10405000B0B50446C06820F0C040E06091B10129CD
:1040600026D1E068002540F00050E0600120FCF718
:1040700061FC6069C00705F1010014D1312D0546CE
:10408000F4D310E0E068002540F08040E06000BF1D
:104090000120FCF74FFC6069C00705F1010002D068
:1040A000312D0546F4D33238B0FA80F04009B0BD66
:1040B0000120B0BDFEE700002DE9F04385B040F2DD
:1040C0009009C2F20009044699F8010040F2F00597
:1040D0002043C2F2000541F204068DF806000A27CB
:1040E0000DF1060228464E210123CEF2000600976C
:1040F000FCF7DEFD99F801000DF10702204340F0C6
:1041000004008DF8070028464E2101230097FCF794
:10411000CFFD40F22808C2F20008D8F800004DF6A2
:104120008365C4F21B35A0FB0501880C00EB800100
:10413000306889003268121A0292029A8A4211D2B9
:104140003268121A0292029A8A420BD23268121A0A
:104150000292029A8A4205D23268121A0292029A96
:104160008A42E7D399F8010004F0FB0108438DF877
:104170000F0040F2F0000A27C2F200000DF10F021A
:104180004E2101230097FCF793FDD8F80000A0FB17
:104190000501880C00EB8001306889003268121A32
:1041A0000492049A8A4211D23268121A0492049A32
:1041B0008A420BD23268121A0492049A8A4205D2B9
:1041C0003268121A0492049A8A42E7D305B0BDE815
:1041D000F083000080B584B0024601200DF10F018C
:1041E000CDE9001040F29C004FF0640CC2F20000D8
:1041F000A0211023CDF808C0FCF774FF002818BFD9
:10420000FCF792FB9DF80F0004B080BD80B584B030
:10421000034640F29C004FF0640CCDE90012C2F25C
:104220000000A0211A461023CDF808C0FDF710F9B0
:10423000002818BFFCF778FB0A2004B0BDE88040D6
:10424000FCF778BBBCB040F60004C4F20204FDF7F2
:1042500065FAFFF7D5FAFFF78BF9FFF743FAFFF797
:1042600063FAFFF783FAFFF7A1FA40F2000540F284
:10427000950BC2F20005C2F2000B00202946D84679
:10428000A94601F8040FABF8000008F8020F49F83E
:10429000070F286005F10800069005F10900059058
:1042A000A81C019005F10A00099101210490E81C65
:1042B0000122AA460891A91D029002200BF10106D5
:1042C0002AF8052F03916F1CFEF780FBFEF7D8FA42
:1042D00000200021FEF70CFD0FF2D870FEF7F0FC75
:1042E00006200121FEF704FD0FF2D470FEF7E8FC72
:1042F0004FF4FA60FCF71EFB002041460122FFF755
:1043000085FF0120314601220796FFF77FFF02203B
:1043100059460122FFF77AFF032029460122FFF7C1
:1043200075FF042039460122FFF770FF019905202F
:104330000122FFF76BFF029906200122FFF766FFBB
:10434000039E072031460122FFF760FF08205146F7
:104350000122FFF75BFF099F092039460122FFF781
:1043600055FF0A2049460122FFF750FF06990B200E
:104370000122FFF74BFF05990C200122FFF746FFB2
:1043800004990D200122FFF741FF0020FFF722FFD3
:1043900088F800000120FFF71DFF8BF801000220C4
:1043A000FFF718FF8BF800000320FFF713FF2870BA
:1043B0000420FFF70FFF68700520FFF70BFFA870C0
:1043C0000620FFF707FFE8700720FFF703FFA8713B
:1043D0000820FFF7FFFE8AF800000920FFF7FAFE29
:1043E00038700A20FFF7F6FE89F800000B20FFF76F
:1043F000F1FE28720C20FFF7EDFE68720D20FFF72A
:10440000E9FE2F786978AA78EB78A872384600F030
:10441000EFFB9BF800009BF8011098F80020B046D5
:10442000002700F02BFC0120FCF784FAFEF728FAA5
:1044300000200021FEF75CFC0FF29060FEF740FCCC
:104440004FF4FA60FCF776FA0DF18C09FF264FF075
:10445000000A012005E000BF4FF4FA70FCF76AFA89
:104460000998C00727D00120FCF764FAFEF708FA84
:1044700000200021FEF73CFC0FF25C60FEF720FC00
:104480004FF4FA60FCF756FABAF10D0F40F386804C
:104490000120FCF74FFAFEF7F3F9002000214FF05E
:1044A000000AFEF725FC0FF25460FEF709FC4FF4FA
:1044B000FA60FCF73FFA0898C00700F01581012068
:1044C000FCF738FAFEF7DCF900200021FEF710FCBB
:1044D0000FF23C60FEF7F4FB00200121FEF708FC20
:1044E0000FF23C60FEF7ECFBFF20287336E000BFC4
:1044F000002000210022ABF800708BF8027000F061
:10450000BDFB2879013028710A20FCF713FAFEF769
:10451000B7F900200021FEF7EBFB44F67E50C0F611
:104520000000FEF7CDFB69799BF8013028799BF8F4
:104530000020CB1A44F67251821A4846C0F6000198
:10454000FBF742FF00200121FEF7D2FB4846FEF7B1
:10455000B7FB2E73C820FCF7EDF9287BC0B2022808
:1045600004D00328C4D00028F4D19DE0002000210D
:104570000022ABF800708BF8027000F07FFB6879C6
:104580000130C1B23D3918BF01466971BCE700BFB7
:10459000BAF10E0F4FF0FF063FF47AAFBAF1050FF4
:1045A00002D1E87A0230E8720120FCF7C3F90AF17F
:1045B000010A48460FF234515246FBF705FFFEF759
:1045C0005FF900200021FEF793FB4846FEF778FBD9
:1045D00046F26130C0F27400CDF8970046F2745094
:1045E000C6F27210259042F27300C6F669602490FC
:1045F00047F27020C7F26530239000200121FEF7BA
:1046000077FB4846FEF75CFB2E730A970A98013049
:104610000A900120FCF78EF9287B0028F6D10120B2
:104620002E73FCF787F920464FF400610122FCF756
:1046300081FA0120FCF77EF920464FF480610122C7
:10464000FCF778FAE87AB8B1002600BF20464FF4AC
:1046500000710122FCF76EFA0120FCF76BF920468D
:104660004FF400710022FCF765FA0120FCF762F9B3
:10467000E87A01368642E9D320464FF48061002271
:10468000FCF758FA20464FF400610022FCF752FA7A
:104690000120FCF74FF9BAF1050F7FF479AFE87A02
:1046A0000238E87274E700BFFEF7EAF80020002144
:1046B000FEF71EFB0FF27C40FEF702FB00200121FB
:1046C000FEF716FB0FF27840FEF7FAFA4FF4FA60A5
:1046D000FCF730F90020002100222E73ABF80070A7
:1046E0008BF8027000F0CAFA0520FCF723F9287B4A
:1046F000032859D8DFE800F0025E788E0120FCF72D
:1047000019F9FEF7BDF800200021FEF7F1FA44F692
:104710006950C0F60000FEF7D3FA4FF4FA60FCF7D8
:1047200009F920464FF400610122FCF703FA012049
:10473000FCF700F920464FF480610122FCF7FAF9FA
:10474000E87AB8B1002600BF20464FF4007101227C
:10475000FCF7F0F90120FCF7EDF820464FF400716A
:104760000022FCF7E7F90120FCF7E4F8E87A0136CB
:104770008642E9D320464FF480610022002308934B
:10478000FCF7D8F90120FCF7D5F820464FF400617A
:104790000022FCF7CFF90120FCF7CCF8FF26287B9C
:1047A000FF2847D149E000BF00210891FF2841D1EF
:1047B00043E000BF4FF48070A88001200121AF7159
:1047C0000891FCF7B7F8FEF75BF800200021FEF730
:1047D0008FFADFA0FEF774FA4FF4FA60FCF7AAF83C
:1047E000287BFF2826D128E0002100200022ABF8FA
:1047F000001008908BF8021000F040FA6879013040
:10480000C1B23D3918BF01466971287BFF2811D11B
:1048100013E000BF002100200022ABF80010089038
:104820008BF8021000F02AFA287901302871287BD1
:10483000FF2802D00AA800F08FF94FF4FA702E7307
:10484000FCF778F80BF1020607995846324600F05B
:1048500093F90120FCF76EF80A20FCF76BF8FEF7DD
:104860000FF80020002100220992FEF741FA44F6D9
:104870007E50C0F60000FEF723FA69799BF80130FC
:1048800028799BF80020CB1A44F67251821A4846C8
:10489000C0F60001FBF798FD00200121FEF728FA81
:1048A0004846FEF70DFA9BF80200A97988420BD31F
:1048B0009BF801006979884204D39BF800002979AC
:1048C00088422DD2002009909BF80300FF26002883
:1048D0003FF4C2AD072041460122FFF797FC691D56
:1048E00008200122FFF792FC291D09200122FFF771
:1048F0008DFCE91D0A200122FFF788FC06990B2098
:104900000122FFF783FC05990C200122FFF77EFCB2
:1049100004990D200122FFF779FC8BF803709BE5C9
:10492000079FFF20287300BFA4F58068404601213F
:10493000FCF7F8F840468021FCF7F4F840464FF4C5
:104940008041FCF7EFF820464FF48071FCF7EAF85D
:10495000FDF796FF00200021FEF7CAF944F6495002
:10496000C0F60000FEF7ACF900200121FEF7C0F907
:1049700044F65950C0F60000FEF7A2F94FF47A70E1
:10498000FBF7D8FF58463946324600F0F5F8287B49
:104990000028C9D1FF2028730120FBF7CBFF204658
:1049A0004FF400610122FCF7C5F80120FBF7C2FFBC
:1049B00020464FF480610122FCF7BCF8E87AB8B1D8
:1049C000002600BF20464FF400710122FCF7B2F828
:1049D0000120FBF7AFFF20464FF400710022FCF7E7
:1049E000A9F80120FBF7A6FFE87A01368642E9D351
:1049F00020464FF480610022FCF79CF80120FBF771
:104A000099FF20464FF400610022FCF793F8012043
:104A1000FBF790FFAAF10D00B0FA80F0400944F6D0
:104A20009B510990CAF10D024846C0F600010AF1F7
:104A30000106FBF7C9FCFDF723FF00200021FEF76C
:104A400057F94846FEF73CF900200121FEF750F9DE
:104A500044F68E50C0F60000FEF732F90020002127
:104A60000022ABF800008BF8020000F007F92046A6
:104A70004FF48071FCF750F888B140460121FCF7F3
:104A800051F840468021FCF74DF840464FF48041F4
:104A9000FCF748F820464FF48071FCF743F8DDF846
:104AA0000C80B24600279BF80300FF2600287FF405
:104AB00011AFD1E470696C6C706172746E657200D4
:104AC00057454C434F4D452100000000424F4F5485
:104AD000494E472055500000526566696C6C207243
:104AE000657175697265642E0000000066696C6C02
:104AF00020736C6F7420256420260000526566695F
:104B00006C6C20636F6D706C6574652E0000000026
:104B100073657420616C61726D2074696D6500004D
:104B20002620707265737320696E74657261637498
:104B30000000000054696D6520736574000000007A
:104B400077617320737563636573732E00000000D3
:104B5000524553455400000010B50446FBF748FD8C
:104B600082B240F25060C2F2000021466423BDE8E8
:104B70001040FDF741BD000070B584B00D460646FB
:104B800003200DF10D01CDE9001040F29C00144608
:104B90004FF0640CC2F20000D02100220123CDF8B6
:104BA00008C0FCF79FFA002818BFFBF7BDFE9DF870
:104BB0000F109DF80E200B0903EB830301F00F018A
:104BC00001EB4301317011099DF80D0001EB8101EA
:104BD00002F00F0202EB41012970010901EB810192
:104BE00000F00F0000EB4100207004B070BD000029
:104BF00010B584B04FF0CD0C00FB0CFE4FEADE2E5A
:104C00000EEB8E04A0EB440040EA0E108DF80C0071
:104C100001FB0CF0C00A00EB8004A1EB440141EA67
:104C200000108DF80D0002FB0CF0C00A00EB8001B3
:104C3000A2EB410141EA00108DF80E0003FB0CF0DD
:104C4000C00A00EB8001A3EB410141EA00108DF89E
:104C50000F00042003A9CDE9001040F29C00642459
:104C6000C2F20000D021032201230294FCF7F0FBE2
:104C7000002818BFFBF758FE04B010BD80B584B003
:104C80004FF0CD0C02FB0CF34FEAD32E0EEB8E034C
:104C9000A2EB430242EA0E128DF80D2001FB0CF24A
:104CA000D20A02EB8203A1EB430141EA02118DF823
:104CB0000E1000FB0CF1C90A01EB8102A0EB4200CF
:104CC00040EA01108DF80F0003200DF10D01CDE930
:104CD000001040F29C004FF0640CC2F20000D021A2
:104CE00000220123CDF808C0FCF7B2FB002818BF52
:104CF000FBF71AFE04B080BD30380A2801D201202B
:104D0000704700207047F1EE100A4FF6FF71C0F2B5
:104D1000C03120EA010040F04070E1EE100A704717
:104D20000400000800000000000000020001000074
:104D30001000000000000000000102030406070844
:104D400009000000000102030474696D6520666FAC
:104D50007220646F7365212100707265737320691E
:104D60006E7465726163742E00494E54455241431E
:104D7000540025303264203A2025303264005469D2
:104D80006D6520556E74696C20446F736500756E97
:104D900074696C20726566696C6C00256420646FB0
:104DA00073657300C84D000800000020300000004B
:104DB00028020008F84D000830000020680C0000B0
:104DC0004802000800000000040F0A03FFFFFFFF75
:104DD000FFFFFF37FF00191B060C1B1300181806F6
:104DE0000908090600000000010000001000000092
:084DF0000024F40000000000A3
:04000005080001C529
:00000001FF
